:0200000460009A
:100000004643464200000156000000000101020084
:1000100000000000000000000000000000000000E0
:1000200000000000000000000000000000000000D0
:1000300000000000000000000000000000000000C0
:1000400000000000010403000000000000000000A8
:100050000000200000000000000000000000000080
:100060000000000000000000000000000000000090
:100070000000000000000000000000000000000080
:10008000EB04180A063204260000000000000000FD
:10009000050404240000000000000000000000002F
:1000A0000000000000000000000000000000000050
:1000B0000604000000000000000000000000000036
:1000C0000000000000000000000000000000000030
:1000D00020041808000000000000000000000000DC
:1000E0000000000000000000000000000000000010
:1000F0000000000000000000000000000000000000
:10010000D8041808000000000000000000000000F3
:100110000204180804200000000000000000000095
:1001200000000000000000000000000000000000CF
:10013000600400000000000000000000000000005B
:1001400000000000000000000000000000000000AF
:10015000000000000000000000000000000000009F
:10016000000000000000000000000000000000008F
:10017000000000000000000000000000000000007F
:10018000000000000000000000000000000000006F
:10019000000000000000000000000000000000005F
:1001A000000000000000000000000000000000004F
:1001B000000000000000000000000000000000003F
:1001C000000100000010000001000000000000001D
:1001D000000001000000000000000000000000001E
:1001E000000000000000000000000000000000000F
:1001F00000000000000000000000000000000000FF
:10020000FFFFFFFFFFFFFFFFFFFFFFFFFFFFFFFFFE
:10021000FFFFFFFFFFFFFFFFFFFFFFFFFFFFFFFFEE
:10100000D10020402C100060000000000000000013
:1010100020100060001000600000000000000000D0
:1010200000000060E07704000000000000000120E4
:1010300035100060764B4FF42A01764A76485A64A0
:101040001864764A99639546754A03F530337549B5
:1010500008208A42C3F854010FD0734B9A420CD235
:10106000D4430846234423F0030304330B4450F8CD
:10107000041B984242F8041BF9D16C4A6C498A421D
:101080000FD06C4B9A420CD2D4430846234423F031
:10109000030304330B4450F8041B984242F8041B2A
:1010A000F9D1654A654B9A420BD2D04311460024D0
:1010B000034423F003030433134441F8044B8B42ED
:1010C000FBD15F4A4FF470015E4B116003F5307144
:1010D0005D4A43F8042F9942FBD15C4B80215C4A66
:1010E00003F8011B9342FBD15A4C4FF080375A4E04
:1010F0004FF0FF32DFF8A0A10025DFF8A091DFF864
:10110000A081564B4249C3F800A0C4F80471C4F84A
:101110000091C4F8F470C4F8F080F36923F07F0301
:1011200043F04003F361736A23F07F0343F040030D
:1011300073628A66CA660A674A6700F0B3F8484A6B
:101140006320484B4849106003221D60CAF83810DC
:1011500043F8082C4549464A4648C3F8082D0B6811
:10116000454A43F08073CAF83C0044480B6013685A
:10117000434943F00103136003680B6000F00EF96C
:10118000C4F804713F48C4F80091C4F8F470C4F87E
:10119000F08000F0D5FA00BF00BF00BF00BFF16EC5
:1011A000394A41F44051394BF1661560C2F8085193
:1011B000C2F81851C2F82851C2F838519A6BD207B8
:1011C00008D442F61562324959651A659A6B42F0A5
:1011D00001029A632D4A2F4C936843F001139360E8
:1011E00000F0B6FA2368132BFCD900F097F900F051
:1011F0000BFA00F0A1FA00F003F900F0B9FA236845
:10120000B3F5967FFBD300F0ABFA00F0B5FAFEE73A
:1012100000C00A40FFFFAAAA070020000000042027
:1012200000000000B017006070F203000000002012
:10123000953B0460C06D0020C06D002000A300201D
:1012400088ED00E0FC9B00206935000000E400E030
:10125000A0E400E000800D4000C00F4008ED00E079
:1012600014E000E018E000E07D480000FCED00E044
:101270000000202081490000001000E0041000E080
:10128000848400200046C3230040084000400D40F5
:101290000000C0568C840020009C00201B101820E9
:1012A0000C0D1113F0B5284A0020284B4FF0100CFC
:1012B000274C1127DFF8D8E0122620600125C2F85C
:1012C00000C0C3F800E01760DFF8C8E0214FC3F8A2
:1012D00000E016601F60204E204F166020491F60FE
:1012E000204E41F01501204F16601F6007F5403772
:1012F0001E4E116002371E60DFF89CE01C4E1D4937
:10130000C2F800E01F6016601B4F19601B4E1C499D
:1013100017601E601B4F11601B4E1C491F6016603A
:1013200019602560BFF34F8FBFF36F8FC3F8B00113
:10133000BFF34F8FBFF36F8F52F8883C43F44033B5
:1013400042F8883CF0BD00BF9CED00E0A0ED00E05D
:1013500094ED00E0090010001300200021000207B6
:1013600000A300201400002025000813090000102D
:101370001700004033001013180000602F000B0707
:101380001900007037000B171A0000702F000B13A4
:101390003F0000102500080316002020F0B4174A73
:1013A00040274FF480314FF480564FF400554FF4EE
:1013B000404443F24200136913F0020F06D09461D7
:1013C00051619061136913F0020FF8D113F4005FBB
:1013D00001D15561EFE713F4805F01D15661EAE76F
:1013E000002BE8DA13F4803F01D09161E3E75B065C
:1013F00001D45761DFE7F0BC704700BF00800D40AB
:101400003B4AF3EE096A3B4900201368F0B523F02C
:1014100001030324DFF800E11360C2F89040D1F823
:10142000E030354FDDB2C3F30B24344EC4EB13531D
:1014300007EE905AA5F15501CEF80050B8EEE77AC4
:1014400003EB830507EE904A03FB01F13B6003EBDE
:101450008313B8EEE75A07EE901A491B77EE666AD7
:10146000B8EE677A264D07EE901A0B44C5ED006A78
:10147000F8EE677A3460C7EE265A224E1568224984
:10148000224C87EEA66A07EE903A214BC6F840310F
:10149000F8EE677A87EEA67A75EE855A76EE056ADB
:1014A000FCEEE55AFCEEE66A15EE903A45EA035387
:1014B00016EE905A77EE057A136001EA0541D2F8EC
:1014C0001031FCEEE77A0B43C2F8103117EE903A78
:1014D000D2F81011C3F30B030B43C2F81031136899
:1014E00043F00203136020700A4B01221A60F0BD22
:1014F00080810D4000441F40988400209C8400207F
:1015000094840020009C00200000FF0F40E400E0D5
:101510008536000008E100E090840020304B40F662
:10152000617270B5C3F8202140F2044500F00CF957
:101530002C492D48D1F880202C4C42F003022C4B32
:10154000C1F88020C0F86051226813401BB9D0F860
:10155000A8319A071AD0244B4FF00041234A516317
:101560001A46D3F8401141F00201C3F84011D2F8F5
:1015700040319B07FBD44FF400301E491B4B4FF00A
:101580000042086019209A6300F0E6F81A4D002224
:10159000164B4FF08041144C0A26996328461A6076
:1015A0001146C4F8A8614FF4207200F0DDF84FF442
:1015B00081064FF4800040F24313104A10492E6018
:1015C0002864C4F85851C2F80412C4F848310D4ACE
:1015D0004FF4003101231160C4F8403170BD00BFE9
:1015E00000800D4000C00F4000002E4000900D40D4
:1015F000001C1E008CE200E000A00020009C0020E7
:101600004D3800000CE100E0114B1249D86E0A463B
:1016100040F4403030B4D86640F23765D86EA0242C
:1016200040F44070D8664D648C64936C1B06FCD407
:10163000094B40F23760A0211A4658649964936CB4
:1016400013F08003FBD1054A137030BC704700BF14
:1016500000C00F4000400C4000800C40DD860020A0
:10166000160355005300420020005300650072002D
:10167000690061006C0000001803540065006500FB
:101680006E00730079006400750069006E006F00E1
:101690000403090409024300020100C032090400E6
:1016A00000010202010005240010010524010101CE
:1016B0000424020605240600010705820310001019
:1016C00009040100020A00000007050302400000AF
:1016D000070584024000000009024300020100C027
:1016E0003209040000010202010005240010010576
:1016F00024010101042402060524060001070582D5
:101700000310000509040100020A00000007050398
:101710000200020007058402000200000A0600021F
:10172000020000400100FFFFF8B500BFF8BC08BC94
:101730009E467047FFFFFFFF5FF800F02D5000004E
:101740005FF800F09D3000005FF800F005400000F9
:101750005FF800F0813500005FF800F061330000B1
:101760005FF800F0B91C03005FF800F0DD2703000C
:101770005FF800F0853500005FF800F0E54E0000EE
:10178000450000008D1D000089220000852D00000D
:10179000B5F500009D5A010049DE010035F8010051
:1017A000F5730200797E0200FFFFFFFFFFFFFFFFDE
:1017B0000000000000000000000000000000000029
:1017C0000000000000000000000000000000000019
:1017D00010B5054C237833B9044B13B10448AFF36B
:1017E00000800123237010BDC06D002000000000A8
:1017F00074F20300084B10B51BB108490848AFF359
:1018000000800848036803B910BD074B002BFBD0CC
:10181000BDE81040184700BF00000000C46D002064
:1018200074F20300C06D002000000000024B002194
:10183000027843F822107047E07D002038B5054C4F
:10184000A4F580552046103C04F0C8FDAC42F9D107
:1018500038BD00BFCC7D0020094A136833B1094A66
:101860004FF480515B68A2F844111847536833B1B4
:10187000054A4FF480515B68A2F8E410184770479E
:10188000E07D002000C03D4000003E4070B50546B0
:1018900082B00E4619B912B1114815F047FD941BDC
:1018A0000F2C01940AD82B68012C184614D06CB95F
:1018B000019A00216A60995402B070BD002201A90A
:1018C00028461EF0E3FE019B2860AB6022463146AD
:1018D00002F022FF2B68EBE732781A702B68E7E7FB
:1018E00040000020F8B5054603F078F9002186464F
:1018F0002B46FF200A46C1EBC10401311A600027C4
:1019000005EB840610295A6003F11C0343F8142CDC
:1019100043F8102C43F80C2C43F8082C43F8042C03
:1019200045F824E07061E6D1C5F8C071F8BD00BF8C
:101930002DE9F041002406460127A04604E02B7E55
:1019400073B30134102C26D003F048F9C4EBC40360
:1019500006EB83056A7E002AF3D056F82320A96897
:10196000821A8A42EBD956F823206968821A8A4281
:1019700013D22B7E002BE4D068690021C0B203F0A3
:1019800085F985F818802B69002BDAD001342B6992
:101990009847102CD8D1BDE8F08146F82300D0E755
:1019A00068690121C0B203F071F92F76EB68002B52
:1019B000C7D0EB689847C4E70148FFF7B9BF00BF3D
:1019C000787E00202DE9F04784B0002A4CD0642BAB
:1019D0004AD8D0F8C0418146002C3DDBD9F8C0017F
:1019E0000F280DDC0026B0460136C8EBC805AD0057
:1019F00009EB050467680FB9607E38B1102EF2D18B
:101A00004FF0FF38404604B0BDE8F08703FB02F317
:101A10001C486161CEB2A0FB031301216260304615
:101A20005B090F46A36003F037F93046394603F0EF
:101A30002DF9277603F0D2F80C9B49F805004046B3
:101A4000E3600D9B2361D9F8C0313B44C9F8C03134
:101A5000677604B0BDE8F087039302920191FFF727
:101A600041FF01A90EC9B9E70621074804F0ECF9C6
:101A7000222106484FF0FF3804F0E6F9044804F04C
:101A80008DFBBFE71F85EB516C0000207400002028
:101A90002C6300202DE9F843089E642E94BF002596
:101AA0000125002B08BF45F0010595BB10293FD843
:101AB000C1EBC10107468C0000EB0408D8F8140004
:101AC00090420DD00621214804F0BEF9242120487F
:101AD00004F0BAF91F4804F061FB2846BDE8F8831A
:101AE00006FB03F61C4AC8F804304FF00109A2FBBC
:101AF0000636C0B249464D467609C8F8086003F07C
:101B0000C5F888F8189003F069F838512846BDE800
:101B1000F88306210D4804F097F9002522210F488B
:101B200004F092F90B4804F039FB2846BDE8F8832D
:101B30000621064804F088F92721094804F084F9B1
:101B4000044804F02BFB2846BDE8F8836C00002015
:101B5000C00000202C6300201F85EB517400002082
:101B600098000020000000002DE9F04FBC4C00213F
:101B70002DED068B204683B001F052FFB94BBA4AD7
:101B80001B21E3612262B94804F05EF9B849B94803
:101B900004F0DEFAB74804F001FBB748DFEDB76A9E
:101BA000B2EE046A90ED007AB54BB8EE477AB549CB
:101BB0004B60C7EE267A67EE867AFCEEE77A17EE80
:101BC000903AB3F5004FC0F0C8815B080122B3F52D
:101BD000004FC0F0B98101325B08082AF7D1DFED70
:101BE000AA6A072247F6FF7300680C78D0400A61A2
:101BF000CB6007EE900AF8EE677A86EEA77ABCEE25
:101C0000C77A81ED057A002C40F062819F4D08274C
:101C10009BB24FF40056B5F88C011201C3F1000ECF
:101C20006FEA404042F400621FFA8EFE6FEA5040B5
:101C300092B280B2A5F88C01A5F88E7140F6080723
:101C4000B5F8880180B240F08000A5F88801A5F8B9
:101C50002461A5F82621A5F822E1A5F82A41A5F8D6
:101C60002E31A5F83241A5F83641A5F83A41A5F83C
:101C70003E41B5F888319BB21F43A5F888714B7877
:101C8000834A1033834842F823000B78002B40F03E
:101C9000D2807E4B4FF48052A3F84421A3F8462112
:101CA0004B7801227C49022603F01F005B117B4C1C
:101CB000B24682407A4DDFF814824FF0000B41F8B3
:101CC000232005F13C0902F089FF03461F217548D6
:101CD000236004F0B9F8216800230A22654804F063
:101CE00075FA6448704F04F059FA9FED70AA9FEDA1
:101CF000588B9FED599B1BE006216D4804F0A4F81A
:101D000027216C4804F0A0F85A4804F047FA232130
:101D1000694804F099F8A168564804F097FA5548C4
:101D200004F03CFAA94548F8044F71D055F8046F07
:101D3000582004F0B7FC97ED007A04460023B7EE74
:101D4000C77A4FF07E525D49782084F800A0B5EE46
:101D5000407BC4F810B084ED14AAA660F1EE10FA2E
:101D60006060A1646361A361E36123626362A36253
:101D70006264E26451D0B4EEC87BF1EE10FA4CD844
:101D800089EE076B0193009331464D48FCEEC67B0C
:101D900017EE902AFFF716FE03461946E360354812
:101DA000C4F810B004F052FA1F21464804F04CF871
:101DB00094ED040A02212F48B7EEC00A04F054FA49
:101DC0002C4804F0EBF997ED007AB7EEC77AB5EE40
:101DD000C07BF1EE10FA8FDDB4EEC87BF1EE10FAA5
:101DE0008AD889EE076BD4ED047AA268E16834489A
:101DF000FCEEE77ACDED007AFCEEC67B17EE903A6A
:101E0000FFF748FE002882D0A94548F8044F8DD13D
:101E100003B0BDEC068BBDE8F08F0621244804F02A
:101E200013F82721234804F00FF8124804F0B6F9FC
:101E30004FF0FF33B1E7012B7FF432AF224B4FF469
:101E40008052A3F8E420A3F8E62029E7AFF300804E
:101E50000000000000408F400000000080842E4100
:101E600048810020591E00002D1F0000E8000020BE
:101E7000388100202C630020F46200200024F44903
:101E800009020000607E00201822745100C03D400D
:101E9000009C0020A900000000E100E0407E00203E
:101EA0000000002004010020F4610020CE292B4610
:101EB0006C000020240100206C0100200000F04193
:101EC000787E00204C01002000003E40FC7D002078
:101ED000012C7FF4D4AE244808279BB20024B0F82C
:101EE0008C511201C3F1000E4FF40056ADB242F412
:101EF00000621FFA8EFE45F4804592B2A0F88C5124
:101F0000A0F88E7140F20447B0F88851ADB245F0A8
:101F10004005A0F88851A0F8C460A0F8C620A0F839
:101F2000C2E0A0F8CA40A0F8CE30A0F8D240A0F895
:101F3000D640A0F8DA40A0F8DE40B0F888319BB275
:101F40001F43A0F888719AE607EE903ADFED076A22
:101F5000F8EEE77A67EEA66A46E6F8EEE77A002240
:101F600067EEA66A40E600BF00003E400024F44948
:101F70002DE9F04FDFF874B19FED516ADBF80000F6
:101F8000DFF86CA107EE900A9FED4E7ADAED006A59
:101F9000F8EEE75A2DED048BC5EE867A83B077EE26
:101FA000A67AF4EEC77ACAED007AF1EE10FA06DCF2
:101FB00003B0BDEC048BBDE8F04F02F0A9BD6E216B
:101FC000414E42484FF0020903F03EFF404806F1FF
:101FD0004008404F04F0E2F800259FED358B9FED5F
:101FE000369B20E003F030FF27213B4803F02CFF15
:101FF000374804F0D3F82321384803F025FFA168BF
:10200000334804F023F9324804F0C8F800220023D2
:10201000B04584F80090E5634FF00001A5632564A6
:10202000C4E90C2339D056F8044F2948E1682561EA
:1020300004F00CF91F212A4803F006FF94ED040A6E
:1020400002212348B7EEC00A04F00EF9204804F03C
:10205000A5F897ED007A06212248B7EEC77AB5EECB
:10206000C07BF1EE10FABDDDB4EEC87BF1EE10FAE4
:10207000B8D889EE076BD4ED047AA268E1681A48F3
:10208000FCEEE77ACDED007AFCEEC67B17EE903AD7
:10209000FFF700FD0028B9D1ADE7DBF80000CAF872
:1020A000001003B0BDEC048BBDE8F04F02F030BD72
:1020B0000000000000408F400000000080842E419E
:1020C00000007A4400007042FC7D00209001002056
:1020D0002C630020F4610020240100206C0100200A
:1020E0004C0100206C000020787E0020006200205F
:1020F0005C7E00202DE9F04FC3B0DFF84082074638
:102100004FF0000A20A810AC15F01EFAD8F80820ED
:10211000D8F80430514600922625844A1E468DF890
:10212000F4A0019353F80C3CDFF814922092E018CD
:10213000009A10962E46CDF8F0A08DF8F5A0CDF8B7
:10214000F8A0CDF8FCA0CDF800A1CDF804A1E25094
:1021500015F0E2F909F1140318A8CDF848A020936E
:10216000734BCDF84CA0CDF850A0CDF854A0CDF8CD
:1021700058A0CDF85CA01193CDF8409005F086FBF7
:1021800010236C4A20A811A919931CABCDF86CA0A0
:102190008DF870A011921A9315F0BEF93F2342A951
:1021A000DFF8A0A1012201F8FB3D20461DF012FB43
:1021B0009AF800101DF058FC42A90122DFF888B1FE
:1021C00001F8FC5D1DF006FB026802210BF14005E1
:1021D00052F80C2C1044C268416022F4827242F022
:1021E0000402C2605BF8043F204693ED040AB7EE98
:1021F000C00A1DF0F1FC01220DF10E018DF80E60F8
:102200001DF0E8FA5D45EDD102F026FE2046B7EE5E
:10221000C00A06AC1DF0E0FC0A2342A9012201F825
:10222000F93D1DF0D7FA9AF800300021169A83F094
:102230000103049405918AF800308DF81810002AE3
:102240006DD0149B0CAD0AA815999A420A9598BFB7
:102250001A46FFF71BFB0A98049BA8424DD0A342E5
:1022600054D00B990C9A0591049006990692002B74
:1022700051D00A930C9100220B921A700A98A8422E
:1022800001D004F013FAD8F80450D8F8086007F128
:102290000803DDF810803B60B8F1000F33D04046F2
:1022A00033F0E6FB08EB000238464146FFF7EEFA52
:1022B0000498A04201D004F0F9F91F4B1A9820931A
:1022C0001C4BCDF8409011931CAB984201D004F008
:1022D000EDF9174B18A8119304F08AFC55F80C3C43
:1022E00042AA20A8134443F8C86C104B209315F061
:1022F00081F9384643B0BDE8F08F0AA904A81EF062
:102300000FFA0A9BB7E74FF0FF32CDE70B9A0C9B11
:102310000490059206930A950CAD2B46ABE704A8F2
:102320001AA9009E019D1EF0FBF9B0E77827002056
:10233000382F00200C2E00209C2E00206C2E002018
:10234000882E0020F8610020FC7D00202DE9F04758
:102350008CB00168684604F081F8029B002B31DDE7
:10236000DFF884A000271F24D046B94618E004F007
:1023700089F908A904A804F0C9F808A804F02EF8FF
:102380000499404609F1010904F0C8F804A804F0D2
:1023900025F8029B1F371F34AB4208F1100815DDEA
:1023A000002104A804F05AF8651E029E23463A460E
:1023B0006946AE4208A82546D9DD694608A804F05A
:1023C0003DF9D6E74FF00009DFF81CA005490AEBFC
:1023D000091004F093F8684604F000F80CB0BDE86A
:1023E000F08700BFE87D0020DC6D0020F0B401F133
:1023F000100347689F4213D0FB1A1B11002B0FDDFF
:102400009A1C01F1200301EB021253F8086C1033FF
:1024100053E9084543F8286C43E90C459342F4D14D
:10242000103F47600846F0BC704700BF2DE9F843F5
:102430000646894609C81A1A5FEA22183AD04FEAB6
:102440004801884539D96FF00F08404604F02AF951
:10245000074696E80300B84407F110040A1ABD18AD
:1024600007D0D9F808E0D9E90023C5F808E0C5E9A4
:102470000023814215D003463A463AB1D3F808E02A
:10248000D3E90045C2F808E0C2E900451033103234
:102490008B42F2D100F110041C1B24F00F042034F5
:1024A0003C4408B104F002F937607460C6F8088053
:1024B000BDE8F8834FF01008C7E7B1F1805FC2D2E2
:1024C00021B98846102419464746C8E74FEA4818FC
:1024D000BBE700BF38B543688568AB420AD0024607
:1024E0002BB18D68D1E900019D60C3E90001103373
:1024F000536038BDFFF79AFF38BD00BF00000000F1
:102500002DE9F04F074603680C467A6819462DED11
:10251000048BA7B01A440DF1580A14A80DF1400B12
:10252000CDF850A0FFF7B2F9A54A0EA8CDF838B003
:10253000A2F10901FFF7AAF90022164601E00136CF
:10254000421C0F9B14A80E991EF01AFC421CF6D1D7
:102550003B680DF188087A6820A81946CDF880807C
:102560001A440DF17009FFF791F9964A1AA8CDF8AF
:102570006890A2F10901FFF789F90022154601E0F0
:102580000135421C1B9B20A81A991EF0F9FB431C25
:10259000F6D11A983544484501D004F087F82098C0
:1025A000404501D004F082F80E98584501D004F05F
:1025B0007DF81498504501D004F078F8012D15DD10
:1025C0003A6800258049814831F05EFF7F4833F04A
:1025D0004FFA01467D4803F037FC7D4803F0DEFDED
:1025E000284627B0BDEC048BBDE8F08F3B6820A8DF
:1025F0007A681946CDF88080092A94BF9A1803F1A9
:102600000902FFF743F9734920A81EF027FC05468D
:102610002098404501D004F049F8002D40F0428157
:1026200014AD18AE0920421C6B49012338461EF038
:10263000DBFB411C45F8040B00F00583AE42F2D1F0
:102640007B68149D082BA5F1090240F27485396856
:10265000093B1AA8CDF868900931934294BFCA1873
:102660008A18FFF713F91A9E304633F001FA014633
:10267000304603F0E9FB564803F090FD57491AA88D
:102680001EF0ECFB002800F0BD8055491AA81EF092
:10269000E5FB002840F0E4816A1C7B6815999A42AA
:1026A000A1EB050500F2438539689B1A20A8CDF8F7
:1026B00080801144AB4294BFCA184A19FFF7E6F86C
:1026C000209830F075FC2098B7EEC08B404501D0C3
:1026D00003F0ECFFB7EEC87A42493C4853EC172BA5
:1026E00031F0D2FE394833F0C3F90146374803F0E0
:1026F000ABFB374803F052FDE16884ED0F8A84EDAF
:10270000048A334803F0A2FD1F21374803F09CFBE5
:1027100094ED040A02212E48B7EEC00A03F0A4FD8E
:102720002B4803F03BFD314B93ED007AB7EEC77AAF
:10273000B5EEC07BF1EE10FA07DD9FED1F6BB4EE36
:10274000C67BF1EE10FA40F269840621284803F0B6
:102750007BFB2721274803F077FB1D4803F01EFD74
:102760002321254803F070FBA16819484FF0000AA7
:1027700003F06CFD164803F011FD4FF0000B9FEDC8
:102780001F9A0323DFED1E8A0125237084ED0F8A33
:10279000C4ED0E8A84ED109AC4E90CAB1A98484532
:1027A0003FF41EAF03F082FF284627B0BDEC048B38
:1027B000BDE8F08FAFF300800000000000408F40C4
:1027C0000902002015020020180200203C80002091
:1027D0002C6300200002002050020020FC02002098
:1027E00028030020300300204C010020F461002069
:1027F0006C000020240100206C0100200050D04516
:102800000050D0C51D21884803F01EFB874803F007
:10281000C5FC0023E1682361844803F017FD1F21F4
:10282000834803F011FB94ED040A02217F48B7EEC0
:10283000C00A03F019FD7D4803F0B0FC7D4B93ED19
:10284000007AB7EEC77AB5EEC07BF1EE10FA07DD7D
:102850009FED736BB4EEC67BF1EE10FA40F2DC81B3
:102860000621754803F0F0FA2721744803F0ECFACA
:102870006E4803F093FC2321714803F0E5FAA16848
:102880006A4803F0E3FC694803F088FCDFED6D8AD9
:102890004FF0000A4FF0000B9FED6B9A0223B0EE51
:1028A000688A71E73B6820A87A681946CDF880806D
:1028B000092A94BF9A1803F10902FEF7E7FF63495A
:1028C00020A81EF0CBFA05462098404501D003F021
:1028D000EDFE002D40F0858001230A225C49384638
:1028E0001EF082FAB0F1FF3F814600F0AC81451C3A
:1028F0000123574938462A461EF076FA421C0646FE
:1029000000F0A1817B68082B40F215843968A3F19F
:10291000090220A8CDF8808009314A4594BF8A1861
:1029200001EB0902FEF7B2FF209830F041FB20983E
:10293000B7EEC08B404501D003F0B8FE7B68C9EB11
:1029400006029D4200F2FC8339685B1B20A8CDF88B
:1029500080802944934294BFCA188A18FEF796FFD4
:10296000209830F025FB2098F7EEC08B404501D031
:1029700003F09CFE01367B689E4200F2D7833968E3
:1029800020A8CDF88080CA183144FEF77FFF209838
:1029900030F00EFB2098B7EEC09B404501D003F00D
:1029A00085FEB7EEC96A2B49B7EEE87A2A48B7EE3A
:1029B000C85A8DED026B53EC152B8DED007B31F079
:1029C00063FD254833F054F80146234803F03CFAF0
:1029D000164803F0E3FB84ED128AC4ED138A84EDFC
:1029E000149A3B6820A87A681946CDF88080092A95
:1029F00094BF9A1803F10902FEF748FF174920A86F
:102A00001EF02CFA05462098404501D003F04EFEFA
:102A1000002D00F035810025E2E500BFAFF3008016
:102A20000000000000408F40080300202C630020BD
:102A30004C010020F46100206C00002024010020E3
:102A40006C0100200050D0C50050D045E0030020AC
:102A500050020020EC0300203C8000200C020020EB
:102A60007D491AA81EF0FAF9002800F09B801AA8E8
:102A70007A491EF0F3F9002840F0F5816A1C7B6862
:102A8000DDF854A09A42C5EB0A0500F2508339687C
:102A90009B1A20A8CDF880801144AB4294BFCA187D
:102AA0004A19FEF7F3FE209830F082FA2098B7EE2C
:102AB000C08B404501D003F0F9FD0AF101027B68AB
:102AC000169E9A42CAEB060A00F2318339689B1AB5
:102AD00020A8CDF880801144534594BFCA1801EB5B
:102AE0000A02FEF7D3FE209830F062FA2098F7EE43
:102AF000C08B404501D003F0D9FD721C7B68179D47
:102B00009A42A5EB060600F2128339689B1A20A8A8
:102B1000CDF880801144B34294BFCA188A19FEF7D9
:102B2000B5FE00222098114634F0D2F98246209852
:102B30008B46404501D003F0B9FD01357B689D42CD
:102B400000F2FE82396820A8CDF88080CA18294496
:102B5000FEF79CFE209830F02BFA2098B7EEC09B31
:102B6000404501D003F0A2FDB7EEC96A3C49B7EE7B
:102B7000E87A3C48B7EEC85A8DED046B53EC152B40
:102B80008DED007BCDE902AB31F07EFC354832F0B3
:102B90006FFF0146334803F057F9334803F0FEFA5C
:102BA0000123F1E56A1C7B6815999A42A1EB0505A2
:102BB00000F2BD8239689B1A20A8CDF880801144AC
:102BC000AB4294BFCA184A19FEF760FE209830F055
:102BD000EFF92098B7EEC08B404501D003F066FDB9
:102BE000B7EEC87A21491F484FF0000A4FF0000B9A
:102BF0009FED1F9ADFED1F8A53EC172B31F044FC39
:102C0000184832F035FF0146164803F01DF9164802
:102C100003F0C4FA0023B7E5D4ED046AA268FCEE21
:102C2000E66AE16814489FED0A5BCDED006A85EE27
:102C3000076BFCEEC67B17EE903AFEF72BFF0028E1
:102C40007FF424AE17E63A6800250C49BBE400BFC8
:102C50000000000080842E415403002080030020E7
:102C6000880300203C8000202C6300205C030020AF
:102C70000050D0450050D0C5787E0020540200207E
:102C800001230922824938461EF07AF8431C064681
:102C900000F0E5817B68A0F10902082B40F24B822D
:102CA0003968093B20A8CDF880800931934294BF50
:102CB000CA188A18FEF7EAFD209830F079F92098B2
:102CC000B0EE408B404501D003F0F0FC01367B684C
:102CD000B342C0F02B82396820A8CDF88080CA1892
:102CE0003144FEF7D3FD00222098114634F0F0F86D
:102CF000054620980E46404501D003F0D7FC62A35C
:102D0000D3E90023AA42B34180F27D81216A04F114
:102D1000200B636A04F1140A62685B1AB2EB231F8A
:102D2000C0F0B981B7EEC88B20A958468DED228A34
:102D3000CDE92056FFF7CEFB2378022B00F0BE81B1
:102D4000002B00F0B081012B40F0B081D4E90C23BE
:102D5000954276EB0301C0F2DE81AA1A94ED0E6A69
:102D600094ED107A07EE902AF8EEE76AD4ED0F7A28
:102D7000A6EE267AB4EEE77AF1EE10FA40F3BE81C1
:102D8000B5EEC06AF1EE10FA40F3B88177EEC87A7A
:102D900020A95046CDED227ACDE92056FFF79AFBC7
:102DA0002578022D00F09881032D00F0A38166693B
:102DB000A3699B1B4FEA2319B9F1010F40F3688106
:102DC00009F1FF33DFED338A4FF0010E1B010D9344
:102DD000F31893ED029A09E007EE902AF8EEE77AED
:102DE0000EF1010EE8EE278AF1455FDD0EF1FF38A6
:102DF000F6EE007A4FEA081505F110077319F2197B
:102E000093ED028AD2E9000192ED027AD3E9002320
:102E100038EE078A821A4EF6602061EB0303002128
:102E200028EE278A994208BF9042D5D220211A481D
:102E300003F00AF8616950462944FFF7D7FA216A7E
:102E400058462944FFF7D2FA616950463944FFF7E2
:102E5000CDFA216A58463944FFF7C8FAC646666972
:102E6000DFED0C7ABCE73A6800250C490C4831F0DC
:102E70000BFB0B4832F0FCFD0146094802F0E4FF71
:102E8000084803F08BF989E4FFE00B5E00000000C6
:102E90005002002000000000A8040020A803002029
:102EA0003C8000202C6300200000C8420D9FF519D3
:102EB000D6E90001D5E90089B8EB000069EB010112
:102EC0002EF03EFFA7F1100307EE900AF2583344AC
:102ED00088EEA73AD5ED027AC2EB0808D3ED026A74
:102EE000B8F1000F40F3F38077EEE66A07EE908AC0
:102EF000B8EEE77AC6EE877AB7EEE74A94ED126A43
:102F000094ED135A29EE066A94ED147A23EE055ACD
:102F10005FED1B6A67EE877A36EE058A38EE278A00
:102F2000B4EEE68AF1EE10FA00F3C380B5EEC08A83
:102F3000F1EE10FA00F1F280B7EEC82AB7EEE77AA8
:102F40008B49B7EEC55A8B48B7EEC33AB7EEC66A9F
:102F5000B7EEC99A8DED084B8DED0A7B8DED065BC2
:102F60008DED043B8DED026B53EC122B8DED009B30
:102F700031F08AFA7F4832F07BFD01467D4802F04D
:102F800063FF7D4803F00AF9E16884ED048A7A481A
:102F900003F05CF91F21794802F056FF94ED040A12
:102FA0000221B7EEC00A744803F05EF9724803F0DC
:102FB000F5F8734B93ED007AB7EEC77AB5EEC07BA8
:102FC000F1EE10FA06DD9FED626BB4EEC67BF1EE1A
:102FD00010FA48D906216B4802F036FF27216A48CB
:102FE00002F032FF644803F0D9F82321674802F069
:102FF0002BFFA1686048022503F028F95E4803F022
:10300000CDF8FFF7EDBA38682A463346604900909C
:103010000025584831F038FAFFF7D8BAD4ED046AE1
:10302000A268FCEEE66AE1685A489FED4B5BCDED85
:10303000006A85EE076BFCEEC67B17EE903AFEF752
:1030400029FD00283FF48CAB9FED539A4FF0000A06
:103050004FF0000BDFED518A0323FFF795BB3A6871
:103060004F49FFF7B0BAD4ED046AA268FCEEE66AF5
:10307000E16848489FED385BCDED006A85EE076B4F
:10308000FCEEC67B17EE903AFEF704FD0028ACD0AC
:103090000225FFF7A5BA5846FFF7A8F9504661691F
:1030A000FFF7A4F93EE6D4ED0F7A6FE6DFED3B7A49
:1030B0006CE6B0EE668A9FED2A2B3FE7002320A93D
:1030C00050462293CDE92056FFF704FA68E69FEDBB
:1030D000264BDFED347A11E70023E16826482361AF
:1030E00003F0B4F81F21254802F0AEFE94ED040A67
:1030F000294656E7E36BE168236148E7B4EEE77AD7
:10310000F1EE10FA0FD5B5EEC06AF1EE10FA58BF25
:10311000F0EE477A3AE6D4ED107A37E69FED122BBF
:103120009FED208A0AE7F0EE477A2FE632461E49E5
:103130001E4814F02BF909221B491C4814F026F9EB
:103140002A461949194814F021F900BFAFF300804D
:103150000000000000408F400000000080842E41ED
:1031600000000000000059400000000000000000C6
:10317000CC0400203C8000202C6300204C01002067
:10318000F46100206C000020240100206C0100206C
:103190006C040020787E00200050D0450050D0C53F
:1031A0001404002000000000AC020020C402002033
:1031B00002682DE9F04113788CB0232B12D03E49E0
:1031C00000243E4831F060F93C4832F051FC0146A1
:1031D0003A4802F039FE3A4802F0E0FF20460CB0CF
:1031E000BDE8F08100220123364904461DF0FCFDB4
:1031F000421C054650D06368002B58D021685A1EE7
:1032000002AE684601310096AA4294BF8A184A1954
:10321000FEF73CFB00982FF0CFFE0F2834DC431C58
:1032200021D001356268284B954253F8208038D868
:10323000216808AF06A80A4429440697FEF726FB32
:10324000414606A8FFF75CF904460698B84201D04B
:1032500003F02CFA0098B042C0D003F027FA2046C1
:103260000CB0BDE8F081009A00241849134831F0F1
:103270000BF9124832F0FCFB0146104802F0E4FD65
:103280000F4802F08BFFE5E7009B0F221049002456
:103290000A4831F0F9F8ECE7226800240D490748A4
:1032A00090E713460C492A460C4814F06FF80122A7
:1032B00009490A4814F06AF8100500203C800020F3
:1032C0002C630020244A0020007E0020BC05002042
:1032D0007C05002044050020AC020020C402002030
:1032E0002DE9F04F8FB08C4ADFF8449280460DF103
:1032F000100A114602A8CB46CDF808A04FF0FF34C3
:10330000FEF7C4FA48E0D8F8043007F1FF3E9E42C9
:10331000C4EB0E0E00F2FB80D8F800109A1B0AAD29
:1033200008A831440895724594BF8A1801EB0E0233
:10333000FEF7ACFA0898029BA84200F0B080534513
:1033400000F0C18009990A9A0391029004990492AD
:10335000002B64D008930A91002209921A700898F1
:10336000A84201D003F0A2F901345CD0039A012AEB
:103370000ED902990AAC08A80A440894FEF786FA06
:1033800008A8FFF715FF0898A04201D003F08EF9B6
:103390007A1C3C4600F08980661C01235F49404648
:1033A00032461DF021FD002107465B4B039A02A81F
:1033B00000911DF03FFB7B1CA5D1D8F80430002BF9
:1033C000D2D05921564802F03FFD564802F0E6FEA1
:1033D000D8F804305A1E9E42A2EB040200F29780F5
:1033E000D8F800109B1B0AAD08A8314408959342F9
:1033F00094BFCA188A18FEF749FA0898D9F800301D
:10340000A84269D0484A934275D009990A9A89E836
:103410000300D9F80810C9F80820002B9AD10895A4
:103420000AAD2B4698E7D9F80430002B9ED05321E3
:103430003E4802F009FD3B4802F0B0FEDBF80430E4
:10344000DBF800200AAD08A811461A440895FEF7DB
:103450001DFA08A8039A02991DF0B8FB0898029B70
:10346000A8422AD053453DD009990A9A0391029067
:1034700004990492002B3AD008930A9100220992F1
:103480001A700898A84201D003F010F90021D9F869
:103490000420214B009126481DF0CCFA66E708A9CC
:1034A00002A81DF03DF9089B56E70298504501D04F
:1034B00003F0FCF80FB0BDE8F08F08A902A81DF0DA
:1034C0002FF9089BDAE70A9B099A08950AAD04933D
:1034D00002902B4603923FE708A915481DF020F9FA
:1034E000089B39E7099A0A9B029003920493089576
:1034F0000AAD2B46C2E70A9B099A08950AADC9F89E
:103500000830C9F800002B46C9F8042024E73246E9
:103510000849094813F03AFFC804002084420020FB
:10352000F00500202C6300204C7E00204C0600207B
:10353000447E0020AC020020C4020020F8B5224CDA
:1035400004F5805520461034002102F087FFAC427C
:10355000F8D11E4A00201E49002503F0AFFA1D498C
:103560001D4802F07BFF194A1C491B4803F0A6FACC
:103570001B491C4802F072FF144A1849194803F00D
:103580009DFA194A194B1A4C17781846194E0F4ACA
:1035900019495F70336004F108061D701D615D609C
:1035A00003F08CFA154A4FF0FF35154B20461146B3
:1035B0002660C3F8C051FEF769F92046034A114955
:1035C000BDE8F84003F07ABADC6D0020EC61002021
:1035D0008D000000A0060020E87D00202D4C00009A
:1035E000AC06002038810020F0610020607E0020C1
:1035F000447E0020E07D00207D000000C804002003
:10360000787E0020CDF00100F0B52C4E00222C4B2E
:103610008BB0012130782B4C00251A6001F036FB6D
:103620006846294902F01AFFE36E226F9B1A002BAD
:103630000CDD2448013500F0E3F8C1B2684602F021
:10364000AFFFE36E226F9B1A002BF2DC0D211F48A7
:1036500002F0FAFB69461E4806AF02F079FD05212B
:103660001C4802F0F1FB2946194802F0EFFD102139
:10367000194802F0E9FB164802F090FD307800216D
:1036800001F004FB009C0497A4B1204632F0F0F94D
:103690002218214604A8FEF7F9F804A8FFF720FE37
:1036A0000498B84201D003F001F8684602F096FE93
:1036B0000BB0F0BD4FF0FF32EBE700BFFC61002024
:1036C0005C7E002048810020C8040020B80600204D
:1036D0002C630020C8060020D00600202DE9F04110
:1036E000324E86B0324B0022DFF8E080012100AF7D
:1036F00030781A6001F0CAFA98F800303C46002B86
:1037000042D12C4D20462C4B296803EB011102F0CD
:10371000B9FEBA680023204602F10801013221F007
:103720000701ADEB010D694602F06EFF2B6868469C
:1037300001332B6032F09CF9694602461F4800F0C5
:10374000C5F806211E4802F07FFB684632F090F96A
:103750000146684602F078FB1A4802F01FFD3078F7
:10376000002101F093FA1849204602F03FFF20B1F2
:103770000122002388F800202B60204602F02EFE54
:103780001837BD46BDE8F0810023384688F8003080
:10379000FEF7B0FC3846FEF7D9FD386807F108039C
:1037A0009842AED002F082FFABE700BFFC61002080
:1037B0005C7E0020F87D0020DC6D00204881002028
:1037C000E40600202C630020E87D0020F261002048
:1037D00000207047704700BFC26E006F101A70471C
:1037E000836C1F2B0AD8024610B45C1C03440120D2
:1037F000946483F825105DF8044B704700207047EF
:10380000036FC26E934205D25A1C0344026793F8B9
:103810004C0070474FF0FF30704700BF036FC26E1F
:10382000934203D2034493F84C0070474FF0FF30AB
:10383000704700BF0023026A10B50446A0F8741058
:1038400083640AB19047A26C606904F125010368A2
:10385000BDE81040DB69184710B4C3690024A0F824
:103860007420C16604671BB108465DF8044B184715
:103870005DF8044B704700BF30B404686368A0680B
:10388000DD0709D55B102468C55818442C59234618
:103890001288096830BC1847246800EB6300F6E71B
:1038A00002685368906813F0010F09D05B10098813
:1038B00010B4C45818441268A2585DF8044B10475D
:1038C000126800EB63000988104700BF70B5866C72
:1038D000C6F12004944201D2002070BD0546253077
:1038E0001446304400F018FFAB6C20462344AB6410
:1038F00070BD00BF022A38B504460FD0032A07D096
:10390000012A01D0002038BD0B680360002038BDBB
:1039100000680C2102F0CEFE002038BD0D680C209E
:1039200002F0C0FE034695E80700236083E8070025
:10393000002038BD022A38B504460FD0032A07D02C
:10394000012A01D0002038BD0B680360002038BD7B
:1039500000680C2102F0AEFE002038BD0D680C207E
:1039600002F0A0FE034695E80700236083E8070005
:10397000002038BDF0B50446006985B00025036815
:103980005B689847606903681B699847606904F140
:103990004C01202203681B6A984766690C20336833
:1039A000DF68029502F07EFE03463046164E6946F9
:1039B0005D60164A9C6000931E60154B0392029353
:1039C000B847029B1BB1032269466846984766695F
:1039D00000250C2033685F69029502F063FE034600
:1039E0000C4A30460C4E5D6069460C4D9C6000935D
:1039F0001E6003950292B847029B1BB103226946E1
:103A00006846984705B0F0BDA9200000C920000015
:103A1000452100008521000085200000F1200000E4
:103A200070B505460C46FFF7A5FF68692146036897
:103A3000BDE870401B6818472DE9F84F00243A4D47
:103A400020274FF47A7B394B05F12500DFF8F4A0ED
:103A50002146DFF8F4903A46354E4FF0FF082C71BE
:103A60002C73C5F808B06B612E61EC61314E2C628D
:103A700085F82440C5F800A0C5F8189030F086FA03
:103A80003A46214605F14C00AC6430F07FFADFF88D
:103A9000BCE0294B3A46214606F125003471C6F8B0
:103AA00008B03473C6F810E07361EC662C67A5F8B3
:103AB0007480C6F800A0214DC6F81890F4613462F5
:103AC00086F8244030F062FA3A46214606F14C006E
:103AD000B46430F05BFADFF878E0194B3A462146DF
:103AE00005F12500C5F808B02C712C73C5F810E05D
:103AF0006B61F4663467A6F87480C5F800A0C5F859
:103B00001890EC612C6285F8244030F03FFA3A4678
:103B1000214605F14C00AC6430F038FAA5F8748009
:103B2000EC662C67BDE8F88F388200207C8300208B
:103B30005484002048810020E8830020C0810020B8
:103B4000B0820020F4060020A08601001C83002023
:103B50004C83002003690021C26893F84C30F0B414
:103B600003F01F00012440F202355F1104FA00F057
:103B7000074E1033074C15611161C2F81051C2F89D
:103B8000101146F8270044F82310F0BC704700BF1E
:103B900080E100E0009C0020006A6328D4BF002080
:103BA00001207047C069704703690021C26893F81B
:103BB0004C30F0B403F01F00012440F202355F11D5
:103BC00004FA00F0074E1033074C15611161C2F87A
:103BD0001051C2F8101146F8270044F82310F0BC29
:103BE000704700BF80E100E0009C0020002381625C
:103BF0000363C262704700BF0023C1614362026277
:103C0000704700BF0D4A436E10B50446026023B1F1
:103C100000F15C01032208469847636D23B104F16B
:103C20004C01032208469847636C23B104F13C0120
:103C3000032208469847204610BD00BF38070020E1
:103C4000F0B5002287B08B68054604920BB302AC36
:103C50000E46022220469847F768B66805F13C03F5
:103C600094E803008DE8030093E8030084E8030070
:103C70009DE8030083E803006B6CAA6C04936E64F8
:103C80000592AF641BB1032221462046984707B036
:103C9000F0BD1E46059F02ACE0E700BFF0B5002274
:103CA00087B08B68054604920BB302AC0E46022225
:103CB00020469847F768B66805F14C0394E803007E
:103CC0008DE8030093E8030084E803009DE8030007
:103CD00083E803006B6DAA6D04936E650592AF6572
:103CE0001BB1032221462046984707B0F0BD1E466F
:103CF000059F02ACE0E700BFF0B5002287B08B68FB
:103D0000054604920BB302AC0E46022220469847A9
:103D1000F768B66805F15C0394E803008DE80300DA
:103D200093E8030084E803009DE8030083E80300B0
:103D30006B6EAA6E04936E660592AF661BB103228A
:103D400021462046984707B0F0BD1E46059F02ACAD
:103D5000E0E700BFC3685A6912F4705F30B439D02D
:103D6000550508D54FF480615961016A002940F07A
:103D7000B68009214160140504D54FF40064012187
:103D80005C614160D10406D54FF4805159614168AE
:103D9000002940F3BA80950404D54FF4005405215E
:103DA0005C614160016A022914D002245A4904620C
:103DB0009C6924F001049C611C6944F480741C61BA
:103DC0001C6944F400741C615C692140B1F1807F7E
:103DD00000F08B80940508D5996966254FF400742E
:103DE00021F00101996105625C6191071FD5416A6B
:103DF00000292AD0C16911B9012441600462016A15
:103E0000012976D0196941F400711961C16983698A
:103E100099420CD1C368D96D01F0070101290CBF8B
:103E2000022165210162196921F001011961436ACA
:103E30004BB9D20707D5C36913B9012243600262A7
:103E4000036A012B19D030BC704702243249046246
:103E50009C6924F001049C611C6944F480741C6119
:103E60001C6944F400741C615C692140B1F1807FDD
:103E7000DDD14FF400711966D9E7C468E26DC369FA
:103E8000816902F007029942C2F104020ED96AB1B7
:103E90004569C369013A03F10101C161EB5CDBB221
:103EA0002366C169836901D09942F2D3C2698369EB
:103EB0009A42C8D1E36D5B07C5D1A36923F0010322
:103EC000A36190F828301BB302224FF40073026202
:103ED0002366236923F00103236130BC70470A2164
:103EE000140541607FF54EAF47E74FF40071196646
:103EF00070E71B6FC46981698C4287D0C169DBB2EE
:103F000044694D1CC561635480E70721416042E765
:103F100065230362DDE700BF000200010148FFF7EF
:103F200019BF00BF4C8300200148FFF713BF00BF3B
:103F30001C8300200148FFF70DBF00BF5484002000
:103F4000036830B59B6883B0324D0446AB4252D112
:103F5000006A6328D4BF00200120C0B9E3682E4A5C
:103F6000996921F001019961196941F48071196120
:103F7000196941F40071196159690A40B2F1807FF1
:103F80003FD0062264236260236203B030BD002567
:103F9000E368626265602562DD6D6D0716D00821F9
:103FA0001D4A6160996921F001019961196941F423
:103FB00080711961196941F40071196159690A40E8
:103FC000B2F1807F21D0002003B030BDDD6D15F44B
:103FD000E02FE4D15D6947F60374490042F4806242
:103FE0002C40C9B25C611C690A4344F001011961AB
:103FF0001A6603B030BD8DE8060098479DE80600BC
:10400000ABE74FF400721A66BBE74FF40072002072
:104010001A66BAE7E923000000020001F8B5174666
:1040200000221D4604469DF81860FFF789FF58B12D
:104030005DB10023E2686761E361A56184F82860EF
:10404000936943F001039361F8BD0121E3684FF4E4
:10405000007261621A66F8BDB3F5807FF8B59DF80D
:10406000187002D904234360F8BD164601220546A4
:104070001C46FFF765FF68B16CB1631E0021EA685A
:1040800043F48073E9616E61AC61136617B14FF45C
:1040900000731366F8BDEB684FF400721A66F8BD42
:1040A000134B994230B413D9124B0024C268994281
:1040B0000BD9114D11481346114995645462906211
:1040C000D1629A6C30BC1A6570470E4D0E48F2E70B
:1040D000C26801240D4D4FF4303113460C489564ED
:1040E00054629062D1629A6C30BC1A65704700BF0E
:1040F0007F1A06003F420F000A090704260001014B
:10410000007F05001C1A120C600002023B372819C0
:10411000CA0005052DE9F04F04460126002040F2B3
:104120000237236983B0E26893F84C30DFF8ECE0A3
:1041300003F01F084FEA631C354D103306FA08F6EA
:10414000176100911061C2F81071C2F810014EF8A9
:104150002C6045F82300DFF8C8B02669DBF838206A
:10416000307A2C4922F47C023768D6F8049001EBAF
:104170000010F36842F48022D6F810C0716996F8F6
:104180001880D6F81CA0D6F820E0766A0196A668BA
:10419000CBF838203A68D0F808B049EA0202406803
:1041A0003A60CBF800600360BCF1000F01D0CCF89E
:1041B0000010184B03EB08139A685B681660C3F88D
:1041C00000A0BEF1000F02D0019BCEF80030E368E2
:1041D0000022009920469A65FFF762FF2369E26A90
:1041E00093F84C30103345F8232023690122E4680A
:1041F00043F6026593F84C30074903F01F005B114A
:10420000A561824041F8232003B0BDE8F08F00BFD4
:10421000009C00205C07002000E100E080E100E05D
:1042200000C00F4003682DE9F04F1B6987B0414D76
:1042300004468A469046AB4278D103690021E26881
:1042400040F2023593F84C300120156103F01F074E
:104250001161394EC2F81051B8405D11DFF8E4C069
:104260001033C2F8101146F825004CF823102369CA
:10427000DFF8D4B0187A314ADBF8381002EB0010BE
:104280005A69DF6821F47C0105925A6A41F4802161
:104290001E6802970492DF69A2685D68D3F810E097
:1042A00093F81890039701921F6ACBF83810316881
:1042B000D0F808B02943406831600299CBF800205B
:1042C0000160BEF1000F02D0059ACEF800201B4A13
:1042D000019802EB09129168526808600399116015
:1042E0000FB1049A3A6093F84C3048F00602E16846
:1042F000A06B1033C1F840A1C1F824214CF8230071
:1043000023690120E16840F2033593F84C300C4CEE
:1043100003F01F025B11C1F8185100FA02F244F8D1
:104320002320C1F8100107B0BDE8F08F9847DFF8EF
:1043300014C09CE7F923000080E100E05C07002046
:1043400000E100E0009C002000C00F404900002276
:1043500001F0FE01FFF766BF53044FF4003249003D
:1043600003F47E03C9B21943FFF75CBF53044FF453
:10437000C022490003F47E03C9B21943FFF752BFBC
:10438000436910B5044682B083B9436C53B1406AA7
:1043900002AA238B01A9019004F13C0022F8083DF8
:1043A000A36C98476423636102B010BD4369012B7D
:1043B000F8D10022436E80F83420002BF2D0028B1B
:1043C00002A9836E5C3021F8062D9847642363614F
:1043D00002B010BDC36830B5D3F8145183B00446A1
:1043E0006A0704D5D3F85021C2F34902028315F4B9
:1043F000407F66D1AB0717D5E368D3F87031180456
:1044000005D500226260216A09B162626261226A96
:10441000002A44D0616A226A91426BD0626ADBB2A0
:10442000E169501C60628B54E90723D56369632BF3
:104430002BDD00210122636D616062613BB1228B43
:1044400002A9A36D04F14C0021F8022D9847E36AFC
:10445000F3B100232363236BE26A9A4240D8E268F7
:10446000002194F83430C2F86011002B4CD10123A4
:1044700084F834302A0504D5E3684FF40062C3F8A9
:1044800014216B050ED403B030BDE36A002BE2D1DA
:10449000E26800210323C2F860116360EAE7642345
:1044A0006361C1E70B23E1684FF480606522C1F8C6
:1044B00014016261636063695BB9636C63B1636AD1
:1044C000238B4FF440722046C3F81421FFF758FFA6
:1044D00090E76369012B10D06423636103B030BDA2
:1044E000236BA16A581CE2682063CB5CDBB2C2F884
:1044F0006031BFE70223636096E70022636E84F8B1
:104500003420002BE8D0238B03236360B2E700BF85
:104510000148FFF75FBF00BFB08200200148FFF7EE
:1045200059BF00BFE88300200148FFF753BF00BF19
:104530007C8300202DE9F84FDFF8ACC100245E4EEB
:10454000CCF80440CCF82C606426CCF81840CCF8A9
:104550001C40CCF82060594EDFF890E1CCF80C609C
:104560006426CCF824408CF82840CEF80440CEF8DD
:104570001840CEF81C40CEF82060514E5149CEF87C
:104580000C60514EDFF868A1CEF810604F4E504DD0
:10459000504FCCF800A0DFF85CB1CEF800A0C1F815
:1045A00000A0CE606426DFF850A14B4A4B4BCEF8FA
:1045B0002440CCF8087018468EF82840CCF810B08B
:1045C0004C60CCF814508C61CEF82C20CEF80870DA
:1045D0008F60CEF814504D61CC61C1F810A00E620E
:1045E000364EDFF818E1DFF81891DFF81881DE6049
:1045F0006426C1F82CE04A46C3F810B0DFF808E1A1
:10460000DFF808B14C629F6081F8284041465C6049
:10461000DD615E619D621C835C641C625C655C6242
:104620005C66DC621C6383F83440C3F838E0C3F88E
:1046300000B002F043FA2A4B4A46214841465C60EA
:10464000DFF8CCE05E61204E1C83D86018461C6207
:104650009F605C62DD61DC629D621C635C645C6522
:104660005C66C3F800B01E61642683F83440C3F86A
:1046700038E002F023FA1B4B4A46DFF898E0414647
:104680005C6018465E61114E1C839F601C62C3F81B
:1046900000B05C62DE60DC62C3F810A0DD619D6288
:1046A0001C6383F834405C645C655C66C3F838E086
:1046B000BDE8F84F02F002BA8527000000003F4035
:1046C00000803F404C8300200462002000C03F4037
:1046D0007C83002060F80100792700007C830020A3
:1046E000E8830020B0820020548400201C83002036
:1046F00018070020A4620020546200206D270000EB
:10470000EC61002055240000792D000038070020BE
:104710006D2D0000612D0000844641EA000313F076
:1047200003036DD1403A41D351F8043B40F8043BB8
:1047300051F8043B40F8043B51F8043B40F8043B7B
:1047400051F8043B40F8043B51F8043B40F8043B6B
:1047500051F8043B40F8043B51F8043B40F8043B5B
:1047600051F8043B40F8043B51F8043B40F8043B4B
:1047700051F8043B40F8043B51F8043B40F8043B3B
:1047800051F8043B40F8043B51F8043B40F8043B2B
:1047900051F8043B40F8043B51F8043B40F8043B1B
:1047A00051F8043B40F8043B403ABDD2303211D3BB
:1047B00051F8043B40F8043B51F8043B40F8043BFB
:1047C00051F8043B40F8043B51F8043B40F8043BEB
:1047D000103AEDD20C3205D351F8043B40F8043BBB
:1047E000043AF9D2043208D0D2071CBF11F8013BB9
:1047F00000F8013B01D30B8803806046704700BF7F
:10480000082A13D38B078DD010F003038AD0C3F18D
:104810000403D21ADB071CBF11F8013B00F8013B6F
:1048200080D331F8023B20F8023B7BE7043AD9D32E
:10483000013A11F8013B00F8013BF9D20B78037003
:104840004B7843708B78837060467047964A974BDD
:1048500090422DE9F043964CD3F814E09969E6684C
:104860001CD9944B984240F21581934B40F2276536
:10487000924F0344924C1A0AA7FB0232D30903EB6E
:10488000830303EB830202F2E243AB4228BF2B46D1
:10489000A3F54873A4FB0335ED0804E0894DA84255
:1048A00094BF06250E25814A06F01F07D2F88030F6
:1048B000AF4243F0C003C2F880300AD27C4B26F0EE
:1048C0001F061A462E43DE601368002BFCDA06F042
:1048D0001F071EF0007331D17B4C7C4AD4F810C006
:1048E00014460CEA0202A2420ABF4FF0C0534FF432
:1048F000805200228EEA030414F0605F08D02EF08C
:10490000605E03F06053694C43EA0E0EC4F814E095
:1049100081EA020313F4405F08D0644B21F4405154
:1049200011431A469961936C1C07FCD44EF0007E2B
:104930005E4AC2F814E0936C9906FCD40121644CE1
:104940000A4601FB02F300FB03F3A34209D8072A3E
:1049500000F29580013201FB02F300FB03F3A34256
:10496000F5D95C485C4C1844A4FB00031B0D6C2B70
:1049700000F28B80352B00F28F80DFF888813623A0
:104980005648DFF844C1564CDCF80090B0FBF2F01A
:1049900009EA04044445B0FBF1F00BD043F40053A2
:1049A0004FF480586446CCF80080CCF8003023687F
:1049B000002BFCDADFF8F4C0013ADCF8103003F029
:1049C0000703934207D002F007026446CCF8102098
:1049D000A36CDB03FCD4013989028EEA010313F4D2
:1049E000E05F0CD0314B2EF4E05E01F4E0511A464A
:1049F00041EA0E0EC3F814E0936C9907FCD4394BCE
:104A000039490344DB09A1FB0331090B042928BF01
:104A100004214B1E1B028EEA030212F4407F07D0D2
:104A20002EF4407E03F44073204A43EA0E035361A0
:104A30001E4B5C691A4624F000745C61936C9B0603
:104A4000FCD42A4B4FF0FF32294CBD42A3FB00E3BC
:104A500020604FEA9343274CB2FBF3F3B0FBF1F134
:104A6000254A2160136008D2114B26F01F061A4612
:104A70002E43DE601368002BFCDABDE8F0830429C6
:104A80003FF66FAF013101225BE7DFF87C806C23DA
:104A90001A4876E7122506E71948DFF8708000FB10
:104AA00003F043EA08086CE700A4781F00C00F4039
:104AB000000008400046C32300BA3CDC23B24C008F
:104AC0001F85EB5100366E0100800D4040300080A4
:104AD000FFB19F26808D5B00819F5E1600B29F26EE
:104AE0007F3001807FD1F0089F10E50083DE1B43FB
:104AF000F8620020F46200208884002000643F4DAA
:104B0000001BB700362000806C2000800020008051
:104B1000002857D001222DE9F04F85B083462A4C5A
:104B20002A4D2B4EDDE9028954E8003F286833689E
:104B300044E800210029F7D1264FCDE902893A68DF
:104B4000D31A254A4FF47A7E019712680127A3FBF6
:104B500002234FF47A72984600238B4208BF4245E5
:104B60002CBFC246F2460EFB00AA54E8003F2A685A
:104B7000316844E80073002BF7D101980068411AAE
:104B800015484FF47A7E00680EFB02F2A1FB00018B
:104B90004FF47A70CAEB020288460021994208BF9E
:104BA00040452CBF434673461A44724507D3BBF1B8
:104BB000010B0AF57A7AD8D105B0BDE8F08F01F083
:104BC00095FDD2E7704700BF1C9800208C84002020
:104BD00084840020041000E0888400202DE9F00384
:104BE000124A0126124D134C52E8003F29682068F2
:104BF00042E80063002BF7D10F4A16680F4F321AB4
:104C00004FF000094FF47A783E684FF47A70994576
:104C1000A2FB066708BFB8453C462CBF3C4604468D
:104C200000FB0140BDE8F003704700BF1C98002066
:104C30008C84002084840020041000E088840020FC
:104C400000010F4B1A181B5810B4D0685C6804425E
:104C500005D059B1C3F884005DF8044B70479368E0
:104C600049B9084A5DF8044B1A607047C3F88800D8
:104C70005DF8044B7047044A5DF8044B1A607047B6
:104C80005C0700203830010038F00100272801D8E7
:104C9000FFF7D6BF704700BF27281CD800011A4A6B
:104CA000012902EB0003105810B415D0042913D0C9
:104CB000DC68426822EA040242609A68E9B102298B
:104CC0001ED003295B685DF8044B0CBF0F491049E7
:104CD000116015221A607047DA680129446842EAB7
:104CE000040242609A6808D040F6380111605B689F
:104CF00015225DF8044B1A60704738211160F6E701
:104D000004491160F3E700BF5C0700203830010060
:104D10003800010038F0010004207146084203D039
:104D2000EFF3098000F008B8EFF3088000F004B852
:104D3000704700BF704700BF1B4B05211B4A38203E
:104D400030B5C2F848110821C2F8380383B05A6858
:104D5000174C0A4317485A60C3F88410C3F88810E8
:104D60002368834202D91448FFF770FD0E4D0824D2
:104D70000020124A1249C5F884400190019B9342D9
:104D800005D8019B01330193019B9342F9D9C5F8E2
:104D900088400190019B8B42EDD8019B0133019328
:104DA000019B8B42F9D9E6E700C01B4000801F4001
:104DB000F8620020FF45C32300A3E1113F420F002A
:104DC0003F548900094A08B5136820B118440849BE
:104DD000884202D81060184608BD2EF023F90C2234
:104DE0004FF0FF330260184608BD00BFFC62002090
:104DF00000002820002070474FF0FF30704700BFB0
:104E00004FF4005300204B60704700BF01207047F3
:104E10004FF0FF30704700BF30BFFDE70078B0FAB9
:104E200080F04009704700BF01230370704700BF46
:104E300030BFFDE772B6064A0721064B1964936B33
:104E400043F040039363BFF34F8F30BFFDE700BFD4
:104E500000400D4000C00A4011490B68104A5B0732
:104E6000FBD513680F4AC3F30B230F4910680F4A91
:104E70001B1A91ED006AD2ED006A07EE903A0C4BD6
:104E8000F8EE666AF8EE677A93ED007AB8EE477A44
:104E900067EE867A87EEA60A37EE400A704700BFB3
:104EA00080810D409C840020948400209884002000
:104EB00090840020836BF0B41BB1536843F400432B
:104EC000536072B6446BDCB1144B2260D3F8B0412E
:104ED0000C421FD1124D2F6804E02C68E41BB4F57E
:104EE000166F0BD2D3F8404144F48044C3F84041DC
:104EF000D3F8B861D3F840416404EED5314209D10A
:104F00000023064C8260C360D4F8B0311943C4F862
:104F1000B0110263426362B6F0BC704700002E40DD
:104F2000041000E070B50646006B90B10246002404
:104F300003E012680134012A0CD0536813F0800397
:104F4000F7D032632CB1B36B05689847013C284613
:104F5000F9D170BD33637363F4E700BFF0B5E1B915
:104F6000214C22490020224B01224FF001158026BE
:104F70000A601A46A1604E60E060C3F8BC51D3F8E5
:104F8000B0411C4D44F001048860C3F8B041286072
:104F9000D2F8B031002BFBD1F0BD0904164B144DF3
:104FA0000126114C41F0800100221E60596000F57D
:104FB000805CE26400F5005EA36400F54057D5F81C
:104FC000B01100F580462A46986041F48031C3F85C
:104FD0000CC0C3F810E05F619E61C5F8B011D2F853
:104FE000B031002BFBD1BCE700A00020A0A2002024
:104FF00000002E40B484002080A200202DE9F04F54
:10500000AC4C83B0D4F8448118F0010FC4F844814B
:105010005ED0D4F8AC31002B55D04FF0011BDFF837
:10502000BC92A54E2546DA46C4F8AC31B06AF26AA5
:10503000D4F8403143F40053C4F84031D4F840313F
:105040009F04F5D5D5F8403123F40053C5F840311D
:10505000C5F8B4A1D4F8B43113F00113FAD181B278
:1050600040F28167C9F80030B94200F2B480B1F56E
:10507000D06F80F0E981B1F5817F00F06B8100F2A3
:10508000F080802900F05981822940F0E28092B2BC
:1050900002F07F01072900F2DC8089008748884FF1
:1050A0000844016810063B707B7040F10C82CA0313
:1050B00001D501233B7002218148FFF74FFFD4F84F
:1050C000AC31002BB0D17B4AD2F8BC31002B50D18F
:1050D00018F0400F18D0774BD3F8AC111A46C3F82C
:1050E000AC11D3F8BC11C3F8BC11D2F8B041714B6C
:1050F000002CFAD14FF0FF32C3F8B421D3F8843139
:1051000000F01EFD6F4B1C6018F0807F03D06E4BCB
:105110001B6803B1984718F0007F03D06B4B1B68E6
:1051200003B1984718F0040F08D0624BD3F88431CC
:1051300013F400734CD0664B01221A705D4BD3F808
:105140004821120612D518F0800F0FD061490A7855
:1051500062B1013AD2B20A7042B95F490A7802F0EC
:10516000FB020A70002A00F03282FBBE03B0BDE8E9
:10517000F08F5A49C2F8BC310868034240F0E6811A
:10518000504A15681D40A3D02F0C0FD04A4E4FF047
:10519000010997FAA7F4B4FA84F406EBC41009FAEB
:1051A00004F44030FFF7BEFEA743F2D1ADB2002DAC
:1051B0008ED0414E012795FAA5F4B4FA84F406EB9B
:1051C000C41007FA04F4FFF7ADFEA543F3D17FE75F
:1051D0003F4A1370B2E742F22107B94235D000F2DC
:1051E0008980B1F5086F00F02181B1F5106F30D1E1
:1051F000C0F307403A4A3B4910703B4F3B4A01938A
:10520000C5F8C871C5F8CC11C5F8D02100F09AFCDA
:10521000374A019B80210120B26451601060F36421
:10522000C5F8BCB1D5F8B011936041F48032C5F82F
:10523000B0212A4A1360D4F8B031002BFBD1D4F846
:10524000AC31002B7FF4F0AE3DE7110C072900F0E4
:105250003E81C4F8C0B1D4F8AC31002B7FF4E4AE89
:1052600031E740F20237B94200F0B080B1F5A06FEB
:10527000EFD11F4A80210127F364B26417605160A7
:10528000C5F8BCB1D5F8B011936041F48033C5F8CE
:10529000B031D4F8B031002BFBD1030C5B0643F0E6
:1052A0008073C5F85431D4F8AC31002B7FF4BCAE18
:1052B00009E700BF00002E4000A00020C0012E40E2
:1052C000C8840020A4840020A0840020AC84002096
:1052D000B0840020B8840020A8840020B48400207A
:1052E000D8840020C80002000200CC000200C800E0
:1052F000A0A2002042F2212399425BD042F2213346
:105300009942A6D1B54B802200210120B3641860D8
:105310005A60F164C4F8BCB1D4F8B021996042F489
:105320008033C4F8B031D4F8B031002BFBD1D4F8BD
:10533000AC31002B7FF478AEC5E6A94A02211046B5
:1053400013705370FFF70AFED4F8AC31002B7FF4D2
:105350006BAEB8E692B202F07F03072B3FF679AF4F
:1053600012F0800F4FEA83039E4A4FF000014FF086
:1053700001001A44136814BF23F4803323F001039F
:1053800013608022954BF164B36418605A60C4F8CE
:10539000BCB1D4F8B021996042F48033C4F8B03184
:1053A000D4F8B031002BFBD1D4F8AC31002B7FF412
:1053B0003BAE88E692B2002AA4D18B4BC0F30740E3
:1053C0008A4A19688A4B116018709BE792B202F002
:1053D0007F03072B3FF63DAF12F0800F4FEA8303A8
:1053E000804A4FF000014FF001001A44136814BFC7
:1053F00043F4803343F0010313608022774BF16460
:10540000B36418605A60C4F8BCB1D4F8B021996094
:1054100042F48033C4F8B031D4F8B031002BFBD162
:10542000D4F8AC31002B7FF4FFAD4CE6714A01217A
:105430006B4B127818461A70FFF790FDD4F8AC3118
:10544000002B7FF4F1AD3EE66B4B596800293FF429
:1054500000AF000C1FFA82FE04E00C3359680029EB
:105460003FF4F7AE1F888742F7D15F887745F4D1C4
:10547000070A032F00F0E9801B89120C934228BF12
:105480001346B0F5007F00F0D180B0F5E06F00F07A
:105490008B805A4F1A4601933846FFF73DF9019B1E
:1054A00027F01F021F44BFF34F8F55490A60203277
:1054B0009742FAD8BFF34F8FBFF36F8F4F4819460B
:1054C000FFF74CFDFBE5CB077FF5F5ADF1E54D4F63
:1054D0004FF0010EF3604C494C4B3860C3F800E0CC
:1054E0005960B3604A49D5F8B0017A6001F5805738
:1054F00040EA0E02996001F5005E01F5405001F5A9
:105500008041C5F8B021DF60C3F810E058619961AF
:10551000D4F8B031002BFBD1304A012048F2800191
:10552000F36410604FF48030B2645160C5F8BCB1D0
:10553000D5F8B011936041EA0003C5F8B031C9F85D
:105540000000D4F8B031002BFBD1B8E52D4842F271
:105550002104002605880E60A54240687FF410AE45
:1055600081B200297FF40CAE29492A4C03C90D0CE5
:1055700086282060A180A5717FF402AE72B626480D
:10558000017841F004010170D2F84811080606D4F0
:1055900041F080018020C2F84401C2F8481162B68F
:1055A0001E4A50211170EBE51D481A46134F90F822
:1055B00000E01C491C480193BEF1000F08BF0146E2
:1055C0003846FFF7A9F80722019B7A7068E7D3F8FD
:1055D000482122F08002C3F84821C6E5A0A200209D
:1055E000C8840020C0012E408C840020C0A200206E
:1055F00028860020D8840020DC090020000020201C
:1056000070EF00E0C08400208000070080A200202E
:10561000D0840020C4A20020A8840020B8840020E8
:10562000B084002094160060D81600600A481A461C
:105630000A4907780A480193002F08BF0146094824
:10564000FFF76AF8074F019B2AE7120C0B78934289
:1056500028BF134619E700BFB0840020D8160060A9
:105660009416006000002020002AA0F102022DE91B
:10567000F04714BF00274FF00057022A01D9BDE8B8
:10568000F0874FEAC01ADFF840900D4604460AEB57
:10569000090600214022984630462EF077FC012072
:1056A00047EA05414AF80910C6F83880B060B8F1F9
:1056B000000FE4D0034BA0401C6820431860BDE8F5
:1056C000F08700BFA484002000A00020002AA0F1E1
:1056D00002022DE9F04714BF00274FF00057022ABD
:1056E00001D9BDE8F0874022C501DFF84490884623
:1056F0001544002104461E4605EB090A50462EF0CB
:1057000045FC012247EA084145F80910CAF838600B
:10571000CAF80820002EE4D004F11000034B8240A8
:10572000186802431A60BDE8F08700BFA484002017
:1057300000A0002012048160C36142F08002F0B436
:105740004260012701F5805601F5005501F54054EE
:1057500001F580420760C660056144618261F0BC6A
:10576000704700BF831E022B00D9704730B4064B30
:1057700000F1100401250A4603EBC01005FA04F1FC
:1057800030BCFFF797BB00BF40A00020831E022B58
:1057900000D9704710B4054B01240A4604FA00F101
:1057A00003EBC0105DF8044BFFF784BB00A00020A2
:1057B00040687047124A134BD2F8200220F07F4015
:1057C000984210B584B002D800EB800040000E4C27
:1057D00001A90A2200F0DAFF01A90023204611F8EE
:1057E000012B01333AB10A2B20F8022FF7D11623EF
:1057F000237004B010BD5B00DBB2237004B010BD99
:1058000000441F407F96980014630020F8B51449A7
:105810004FF40037134D034601EB4024124E134A58
:1058200005EB40152146176028463288FFF782FFB6
:10583000318824F01F032144BFF34F8F0C4A1360BB
:1058400020339942FBD8BFF34F8FBFF36F8F0320F4
:105850002946FFF79BFF074B4FF400321A60F8BD53
:1058600060002020008500200E8600208CE100E0F2
:105870005CEF00E00CE100E0244A43682DE9F041D0
:10588000C3F30E431488C569E41A002C38DD20499F
:10589000204A0B781278DBB21F48204E934207D083
:1058A00010F8038036F81870C7F50072944212D9C8
:1058B000013300221A4F082B26F8154027F815202F
:1058C000184E94BFDAB213460A703268C5541444B5
:1058D0003460BDE8F081144B07EB48202246274492
:1058E00003EB45211844FEF717FF0E4A284626F819
:1058F000187013681C441460BDE8F041FFF786BFC0
:105900002846BDE8F041FFF781BF00BF0E860020AA
:1059100024860020008600200486002010860020B7
:10592000DC84002020860020600020201E4B1A7896
:105930005AB902F0FF031D4A127832B12DE9F04145
:105940001B4D2A8812B9BDE8F0817047194EC2F587
:105950000068194F31784246184C07EB411704EBA9
:10596000C12438462146FFF7E5FE08EB040224F087
:105970001F01BFF34F8F124B196020318A42FBD8B1
:10598000BFF34F8FBFF36F8F04203946FFF7EAFE56
:105990003378084A0133DBB2032B88BF002313702E
:1059A00000232B80BDE8F081EE840020D884002005
:1059B00026860020EF8400204086002060102020F2
:1059C00070EF00E02DE9F04F85B0029001910029C1
:1059D00000F0A2800023DFF85C81DFF84C91009397
:1059E0004E4EB8F80030DFF850A1DFF850B14C4A05
:1059F00014784C4A02EB4417002B6ED11D461C460E
:105A000014E099F8003004B935680124002B5ED108
:105A100033685B1B782B79D89AF80030002B56D06E
:105A200000F064FEB8F80030002B54D13846FFF780
:105A3000BFFE10F080003C4AE3D14FF40063384AC7
:105A400089F8000014781A46A8F80030E402019D95
:105A5000364920449542084443D30C440299FEF74A
:105A60005BFE002321464FF400623846FFF762FEDA
:105A700024F01F0304F50064BFF34F8FCBF8003010
:105A800020339C42FAD8BFF34F8FBFF36F8F0420AF
:105A90003946FFF767FE224B214A00211B78244834
:105AA0000133DBB2032B88BF00231370B8F800204A
:105AB000009BA8F8001013440093029B1344029328
:105AC0000B46C0F8841001998A1A01928FD1009870
:105AD00005B0BDE8F08F124A14781A46C3F500608D
:105AE000B4E7019C029922460393FEF715FE039B3F
:105AF0000F4A4FF040411B1BA8F80030009BC2F832
:105B000084101846204405B0BDE8F08F01230098AA
:105B1000137005B0BDE8F08F0198D9E78C840020A0
:105B2000EF84002040860020258600206010202081
:105B300000002E4026860020D884002070EF00E070
:105B4000704700BF314B2DE9F0411B78304F002BDF
:105B500054D04FF40073DFF8EC803B80A8F800309D
:105B6000002180222B480D462B4E2EF00FFA2B4C95
:105B70002B4B29464FF480722A4825702C461D80F5
:105B80002EF004FA35602B4675602A46B560F56044
:105B90002549264E2648DFF8B0E00D70102105702B
:105BA000022035607560B560F560CEF80050FFF7F3
:105BB0008DFDB8F800102A461E4B0320FFF754FD58
:105BC0002B46398801220420FFF780FD204601344E
:105BD000FFF71CFE082CF9D1174B4A221748002169
:105BE000174C0460C3F88410C3F88020D3F8482110
:105BF00042F08072C3F84821BDE8F0814023DFF80D
:105C000044803B80A8F80030AAE700BFB0840020A1
:105C1000EC8400204086002010860020EF840020C5
:105C2000268600200085002024860020DC840020B9
:105C300000860020C940000000002E40A084002003
:105C40007D4100000E86002020860020314B4FF45D
:105C500000322DE9F04F1A6083B02F4B89461C7833
:105C6000002953D02D4BE4B21B789C4250D0824681
:105C70000027DFF8C0B00134294BC7EB09085046B4
:105C8000092C0193274B28BF00241D5D244B33F8BA
:105C900015E0254B0EEB452133F81560234BCEEB79
:105CA00006061944B0453246374419D20EEB452159
:105CB00042461944FEF730FD019BDBF800104846D0
:105CC00033F81520C8EB01019044CBF8001023F8FD
:105CD0001580174B4FF400321A6003B0BDE8F08F07
:105CE000FEF71AFDDBF80020E3B22846921BB2440F
:105CF000CBF80020084A1370FFF788FDB94503D997
:105D0000064B1B789C42B6D13846E2E70846E0E7EE
:105D10000020DEE78CE100E00086002024860020E1
:105D2000DC840020048600201086002060002020F3
:105D30000CE100E0208600200B4B0C4A1B78127807
:105D4000DBB293420DD0013309480A4A092B0A49B4
:105D500028BF0023C35C31F8131002EB4323585CC7
:105D600070474FF0FF3070470086002024860020E7
:105D70000486002060002020DC840020014B18688D
:105D8000704700BF208600202DE9F84F154E164DB4
:105D900034782B78E4B29C4221D0DFF85490DFF8BD
:105DA00054B0DFF85480114F0134082C5FFA84FAA4
:105DB00001D90024A24619F80410DBF8002038F8B5
:105DC0001130084637F811105B1AD31ACBF800309F
:105DD000FFF71CFD86F800A02B789C42E4D1BDE8BB
:105DE000F88F00BF0086002024860020DC8400207D
:105DF00004860020208600201086002000B583B095
:105E000001210DF10700FFF721FF20B19DF80700E8
:105E100003B05DF804FB4FF0FF30F9E7094B00B524
:105E200083B01B788DF8070023B903F0FF0003B09F
:105E30005DF804FB01210DF10700FFF7C3FD03B07E
:105E40005DF804FBD8840020044B1B7803F0FF02AC
:105E50000BB1FFF7B7BD1046704700BFD8840020D4
:105E60002DE9F0410024DFF8408001230C4D274646
:105E70000C4E88F80030337828462035A34204F1D0
:105E8000010405D0FFF794FC030658BF07F500672F
:105E9000042CF0D10023384688F80030BDE8F081AA
:105EA00040860020EF840020EE8400202DE9F84396
:105EB0001F4B1B7813B11F4D2A880AB9BDE8F88320
:105EC000DFF88480C2F500691B4E4FF0010E98F890
:105ED00000104A46194C002306EB4116184F04EBFC
:105EE000C124304687F800E02146FFF723FC09EB88
:105EF000040224F01F01BFF34F8F124B19602031B1
:105F00008A42FBD8BFF34F8FBFF36F8F0420314617
:105F1000FFF728FC98F800300B4A0133DBB2032B63
:105F200088BF0023137000232B803B70BDE8F883EB
:105F3000D884002026860020408600206010202083
:105F4000EE84002070EF00E0EF84002010B4EFF347
:105F5000108272B6437F33B9017F012908D003292B
:105F600010D00123437702B962B65DF8044B704745
:105F7000114C2168A1B1114943610B68086083612C
:105F80005861EEE70E4C216881B10E4943610B6800
:105F90000860836158610C4B4FF080511960E0E755
:105FA000064B4161816120601860DAE7054B416171
:105FB000816120601860EEE7D0860020CC8600204A
:105FC000C0860020C486002004ED00E010B4047FE9
:105FD0004160022CC26003D05DF8044BFFF7B6BFEE
:105FE00083685DF8044B184770B5EFF3108172B603
:105FF0000C4C23688BB10C4E00255A6922607AB193
:10600000956101B962B65D7718469B689847EFF3D2
:10601000108172B62368002BEFD101B962B670BD52
:106020003260EEE7C0860020C4860020FFF7DCBFA8
:10603000184A30B41468002C28D0036821688B42B9
:106040000FD2CB1A00218460C1602360E060106031
:10605000022330BC037570470360144611688B42FD
:1060600008D3A2685B1A002AF6D18260C46003607C
:10607000A060EDE7D568CB1A82600222C560E060BF
:10608000C16888602360027530BC70478460C4605A
:106090001060DDE7C8860020F8B5224E34682CB3C6
:1060A0002368002B3AD11D461F4F04E03468ECB141
:1060B0002368002B32D1A36803B1DD60206933600F
:1060C000036825751B68BB4221D1037F4560022B05
:1060D000C46020D0FFF73AFF6368002BE6D023604E
:1060E0002046FFF7A5FF3468002CE1D1EFF31083C1
:1060F00072B60E4A00211068116003B962B628B169
:106100008468FFF795FF20460028F9D1F8BD2246A4
:1061100000219847E0E783689847DDE7013B23606B
:10612000E4E700BFC88600201D480000D886002094
:10613000044A054B1168054A19601368013313605E
:10614000FFF7AABF041000E0848400208C840020A4
:106150002DE9F0438C688BB0ECB1002506468946EA
:106160002F462B46212201A9484600F04DFA202C4B
:106170002346306828BF202301A9D0F80480304688
:10618000E41A1A461D44C0470744002CE9D138469A
:106190000BB0BDE8F0832746F9E700BF10B5064C09
:1061A00082B003680222248801A95B68ADF804402C
:1061B000984702B010BD00BF480A0020036810B520
:1061C00014465B689847204610BD00BFF0B50646F0
:1061D0008BB0002A33D0012A08BF0A2251B32125EF
:1061E00000E0FDB26F1EB1FBF2F402FB1411C8B265
:1061F000092900F1370100F1300088BFC8B22146FB
:106200000AAC98BFC0B22C4404F8240C0029E8D191
:1062100033B1013D0AAB2D22EDB22B4403F8242CFF
:10622000336801A9C5F12202304629445B689847CA
:106230000BB0F0BD302221258DF82520E8E703685A
:10624000C9B21B6898470BB0F0BD00BF002903DB43
:1062500000230A22FFF7BABF49422D230A22FFF783
:10626000B5BF00BF00000000B4EE400B70B5F1EE0A
:1062700010FA05462DED028B86B080F19180B0EECC
:10628000C07B9FED4B6BB4EE467BF1EE10FA0ADD5E
:10629000036803224E495B6898470646304606B0BD
:1062A000BDEC028B70BD9FED447BB4EEC70BF1EEED
:1062B00010FA58DC9FED427BB4EEC70BF1EE10FAFA
:1062C00051D4B5EEC00B0C46F1EE10FA56D40023B3
:1062D000002C57D0B6EE008B00229FED3B7B0132A5
:1062E00028EE078BD1B28C42F9D830EE080B0A2287
:1062F0002846FCEEC07BB8EE678B17EE901A30EEA6
:10630000488BFFF763FF0F2C4FF00102B2EE047BC6
:106310004FF02E0328BF0F2406468DF80830144492
:10632000E4B228EE070B531C06A91144DAB2A242CC
:10633000FCEEC06BCDED016A9DF8043006EE903A9C
:1063400003F13003B8EEE68B01F8103C30EE488BD9
:10635000E7D12B68284602A95B689847304606B00B
:10636000BDEC028B70BD2B6803221A495B6898470D
:106370000646304606B0BDEC028B70BDB1EE400B58
:106380000123A5E7B6EE007B28460A2230EE070B74
:10639000FCEEC07B17EE901AFFF718FF06467DE76C
:1063A000036803220C495B689847064676E700BFFE
:1063B000FFFFFFFFFFFFEF7F000000E0FFFFEF4167
:1063C000000000E0FFFFEFC19A9999999999B93FB0
:1063D000540A0020500A00204C0A002010B5044640
:1063E00000682DF0B5F9204610BD00BF38B54368F0
:1063F0008B4201D3012038BD0D46044601310068AF
:106400002DF038FE0028F6D0A36884E82100002B88
:10641000F0D10370EEE700BFF8B50446154632B977
:10642000036803B11A700023A3602046F8BD0E462E
:106430001146FFF7DBFF074648B9206810B12DF081
:1064400087F92760002320466360A360F8BDA5603C
:10645000314620682EF02CFAE7E700BF38B500235C
:106460000446036043608360037341B10D460846F0
:106470002FF0FEFA024629462046FFF7CDFF2046C0
:1064800038BD00BF0023884210B504460360436056
:106490008360037303D08A680968FFF7BDFF204655
:1064A00010BD00BF38B50C46054608462FF0E0FA8F
:1064B000214602462846BDE83840FFF7ADBF00BF81
:1064C00038B5054600680C4628B16A688B689A4260
:1064D0000BD22DF03DF9002320686168A26885E8A1
:1064E000070023606360A36038BD09682EF0E0F9FF
:1064F000A2680023AA60A36038BD00BF814203D018
:106500008A680968FFF788BF704700BF884210B5E6
:10651000044601D0FFF7D4FF204610BD10B5044655
:1065200019B1FFF7BFFF204610BDA160204610BD86
:106530002DE9F8430F46036804461546BB428168BF
:106540000AD85A18974207D2C3EB07094FF001083F
:1065500035B92046BDE8F8834FF00008002DF8D08B
:106560004E1920463146FFF741FF0028F1D0B8F11F
:10657000000F0ED023682A46A06803EB09011844D7
:10658000FEF7CAF8236800229A55A6602046BDE8A7
:10659000F88320683946A36818442EF089F9F4E797
:1065A00010B582B00023044601228DF8041001A921
:1065B0008DF80530FFF7BCFF204602B010BD00BFCC
:1065C000036853B1096811B118462EF005B8806808
:1065D00010B118787047184670470B68002BFAD036
:1065E00088680028F8D018784042704708B582685B
:1065F0008B689A4201D0002008BDFFF7E1FFB0FA96
:1066000080F0400908BD00BFBAB170B5B1FA81F49D
:1066100064097CB986689E420DD9F61A013A0D4686
:10662000016896422846194428BF164632462FF084
:10663000DDFAAC5570BD0C7070BD70479A42F8B56C
:1066400004460E4602D911461A460B460021A160A7
:106650002173B0682160824261600ED8834228BFF6
:1066600003461D4633685F5D59553368991806D057
:106670002046FFF717FF33685F552046F8BDA1603D
:106680005F55FAE710B504468B68FFF7D7FF204641
:1066900010BD00BF08B5FBF767FAFBF769FC00F017
:1066A00025F8FAE72DF04CB82DF04AB82DF050B887
:1066B0002DF04EB82DF04CB8FFF766BBFFF73CBB92
:1066C000FFF79CBBFFF75ABBFFF7F0BBFFF7C8BB58
:1066D00008461146FFF7B8BB0846FFF79FBB00BF4F
:1066E000014B00221A7070472A63002070B5214CBC
:1066F000237883B9204B01221B7822701BBB1F4BD0
:106700001B78002B29D11E4B00211A68217012B171
:10671000EFF3058202B170BDEFF3108072B61A6814
:10672000F2B1184C2178D9B90126556926701D603F
:10673000D5B1A96100B962B60025936810465577B6
:106740009847257070BDFFF719FB0028D7D0FFF7D9
:10675000C7FF0A4B1B78002BD5D000F09BF9D2E77E
:106760000028D8D162B670BD074B1D600028E3D168
:10677000E1E700BFDC8600202A630020FC860020C1
:10678000D0860020D4860020CC860020F0B44E1E97
:106790000025374600E00135B0FBF2F302FB1300A1
:1067A00000F13704092800F13000E4B298BFC4B208
:1067B000184607F8014F002BEDD14A1953704DB11F
:1067C000013316F8014F1778E81A3770834202F840
:1067D0000149F5DB0846F0BC704700BFA4484FF004
:1067E0000F0CA44B826F42F47F02F0B58267002544
:1067F000D0F880204FF470469F4C4FF4604E2946ED
:106800004FF4806714432A46C0F88040A3F88C6197
:1068100048F2B826A3F88EC1A3F89051B3F88801C6
:1068200080B240F0F000A3F8880101EB4100914BE9
:106830000131002540011C4604290344A3F804E06B
:10684000DF805A841A865A805A81DE815A82DA821F
:106850005A83DA83E9D1B4F888014FF00F0C874BE3
:106860004FF4704680B229464FF460472A4640EA0A
:106870000C004FF4806EA4F88801B4F8880180B24F
:1068800040F47060A4F88801A3F88C6148F2B8263F
:10689000A3F88EC1A3F89051B3F8880180B240F0FC
:1068A000F000A3F8880101EB4100744B0131002591
:1068B00040011C46042903449F80A3F806E05A8443
